:020000040000FA
:0400000000EF0DF010
:10060000003F065B4F666D7D077F6F777C395E79B3
:1006100071554C445253584142597339203F20354B
:10062000203D2034350038203F2038203D20310047
:1006300036203F2033203D20320032203F20312021
:100640003D20330036203F2031203D20350034202E
:100650003F2032203D20380020202A0020202B007F
:0906600020202D0020202F0000B5
:10066A0002BE43EF03F0025007E1080E015CD8B066
:10067A0041EF03F043EF03F06DEF03F00350041072
:10068A00D8B44AEF03F04CEF03F05CEF03F001C07B
:10069A0005F0010E066E052A55EF03F0D8900636CE
:1006AA00052E53EF03F0065092125BEF04F001C0DF
:1006BA0005F0010E066E052A65EF03F0D89006369E
:1006CA00052E63EF03F00650FF0A92165BEF04F063
:1006DA0002BE7BEF03F0025007E1100E015CD8B0B6
:1006EA0079EF03F07BEF03F0A9EF03F00350041056
:1006FA00D8B482EF03F084EF03F096EF03F001C061
:10070A0005F0F80E0526010E066E052A8FEF03F096
:10071A00D8900636052E8DEF03F0065093125BEF44
:10072A0004F001C005F0F80E0526010E066E052A32
:10073A00A1EF03F0D8900636052E9FEF03F006507E
:10074A00FF0A93165BEF04F002BEB7EF03F0025004
:10075A0007E1180E015CD8B0B5EF03F0B7EF03F06C
:10076A00E5EF03F003500410D8B4BEEF03F0C0EF76
:10077A0003F0D2EF03F001C005F0F00E0526010EDA
:10078A00066E052ACBEF03F0D8900636052EC9EF80
:10079A0003F0065094125BEF04F001C005F0F00E6E
:1007AA000526010E066E052ADDEF03F0D8900636FF
:1007BA00052EDBEF03F00650FF0A94165BEF04F0F8
:1007CA0002BEF3EF03F0025007E1200E015CD8B03D
:1007DA00F1EF03F0F3EF03F021EF04F003500410FC
:1007EA00D8B4FAEF03F0FCEF03F00EEF04F001C007
:1007FA0005F0E80E0526010E066E052A07EF04F03D
:10080A00D8900636052E05EF04F0065095125BEFD8
:10081A0004F001C005F0E80E0526010E066E052A51
:10082A0019EF04F0D8900636052E17EF04F006509B
:10083A00FF0A95165BEF04F002BE2FEF04F0025098
:10084A0007E1280E015CD8B02DEF04F02FEF04F079
:10085A005BEF04F003500410D8B436EF04F038EF1D
:10086A0004F04AEF04F001C005F0E00E0526010E7F
:10087A00066E052A43EF04F0D8900636052E41EF9E
:10088A0004F0065096125BEF04F001C005F0E00E8A
:10089A000526010E066E052A55EF04F0D890063695
:1008AA00052E53EF04F00650FF0A9616120002BEF8
:1008BA006AEF04F0025007E1080E015CD8B068EF55
:1008CA0004F06AEF04F094EF04F003500410D8B473
:1008DA0071EF04F073EF04F083EF04F001C005F048
:1008EA00010E066E052A7CEF04F0D8900636052E16
:1008FA007AEF04F00650801282EF05F001C005F08D
:10090A00010E066E052A8CEF04F0D8900636052EE5
:10091A008AEF04F00650FF0A801682EF05F002BE45
:10092A00A2EF04F0025007E1100E015CD8B0A0EF6C
:10093A0004F0A2EF04F0D0EF04F0F80E0126FF0E47
:10094A00022203500410D8B4ADEF04F0AFEF04F064
:10095A00BFEF04F001C005F0010E066E052AB8EFDC
:10096A0004F0D8900636052EB6EF04F00650811230
:10097A0082EF05F001C005F0010E066E052AC8EFE8
:10098A0004F0D8900636052EC6EF04F00650FF0A8A
:10099A00811682EF05F002BEDEEF04F0025007E195
:1009AA00180E015CD8B0DCEF04F0DEEF04F00CEFB7
:1009BA0005F0F00E0126FF0E022203500410D8B4EF
:1009CA00E9EF04F0EBEF04F0FBEF04F001C005F0EF
:1009DA00010E066E052AF4EF04F0D8900636052EAD
:1009EA00F2EF04F00650821282EF05F001C005F022
:1009FA00010E066E052A04EF05F0D8900636052E7C
:100A0A0002EF05F00650FF0A821682EF05F002BED9
:100A1A001AEF05F0025007E1200E015CD8B018EF7A
:100A2A0005F01AEF05F048EF05F0E80E0126FF0E73
:100A3A00022203500410D8B425EF05F027EF05F081
:100A4A0037EF05F001C005F0010E066E052A30EFFA
:100A5A0005F0D8900636052E2EEF05F006508312C3
:100A6A0082EF05F001C005F0010E066E052A40EF7F
:100A7A0005F0D8900636052E3EEF05F00650FF0A1F
:100A8A00831682EF05F002BE56EF05F0025007E129
:100A9A00280E015CD8B054EF05F056EF05F082EF4E
:100AAA0005F0E00E0126FF0E022203500410D8B40E
:100ABA0061EF05F063EF05F073EF05F001C005F093
:100ACA00010E066E052A6CEF05F0D8900636052E43
:100ADA006AEF05F00650841282EF05F001C005F0B6
:100AEA00010E066E052A7CEF05F0D8900636052E13
:100AFA007AEF05F00650FF0A84161200B3EC0DF0E7
:100B0A003650011809E137500218D8B48FEF05F0B2
:100B1A0091EF05F058EF06F0B3EC0DF001C036F096
:100B2A0002C037F036EF06F059EC06F03E50020DDF
:100B3A001C0EF324D96E000EF420DA6EDF50176E05
:100B4A003E50020D280EF324D96E000EF420DA6E00
:100B5A00DF501724406EC00E98EC0DF05C0E0F6E3D
:100B6A00060E106E6EEC0CF058EF06F059EC06F01B
:100B7A003E50020D1C0EF324D96E000EF420DA6EDC
:100B8A00DF50176E3E50020D280EF324D96E000E68
:100B9A00F420DA6EDF50186E1750185C406EC00EE3
:100BAA0098EC0DF0600E0F6E060E106E6EEC0CF0E7
:100BBA0058EF06F059EC06F03E50020D1C0EF324D5
:100BCA00D96E000EF420DA6EDF50176E3E50020D19
:100BDA00280EF324D96E000EF420DA6EDF501702C5
:100BEA00F3CF40F0C00E98EC0DF0580E0F6E060EC3
:100BFA00106E6EEC0CF058EF06F059EC06F03E5011
:100C0A00020D280EF324D96E000EF420DA6EDECF20
:100C1A0001F0DDCF02F03E50020D1C0EF324D96E16
:100C2A00000EF420DA6EDECF03F0DDCF04F058ECCC
:100C3A0009F00150406EC00E98EC0DF0640E0F6E74
:100C4A00060E106E6EEC0CF058EF06F063EC0AF02C
:100C5A003E2A5FEC08F0000E356E000E346E58EF37
:100C6A0006F0A8EC0AF0176E186A1850000AD8B4F1
:100C7A0041EF06F058EF06F01750440AD8B4DFEFF8
:100C8A0005F0080AD8B4BBEF05F01E0AD8B402EF83
:100C9A0006F0070AD8B499EF05F0260AD8B42BEF64
:100CAA0006F058EF06F01200000E026E180E016EE2
:100CBA00000E046E000E036E5CEC04F0000E026E71
:100CCA00190E016E000E046E000E036E5CEC04F049
:100CDA00000E026E1A0E016E000E046E000E036EF6
:100CEA005CEC04F0000E026E1B0E016E000E046E28
:100CFA00000E036E5CEC04F0000E086E000E076E28
:100D0A0099EC0CF0F1EF06F0010E4624F66EF76A44
:100D1A00060EF7220800F550076E086A99EC0CF0E7
:100D2A00000E026E180E016E000E046E010E036EA6
:100D3A005CEC04F0010E476E0EEF07F0010E45243D
:100D4A00F66EF76A060EF7220800F550076E086A73
:100D5A0099EC0CF0000E026E190E016E000E046E74
:100D6A00010E036E5CEC04F0020E476E0EEF07F004
:100D7A00010E4424F66EF76A060EF7220800F550B3
:100D8A00076E086A99EC0CF0000E026E1A0E016EDC
:100D9A00000E046E010E036E5CEC04F0030E476E47
:100DAA000EEF07F0010E4324F66EF76A060EF722DD
:100DBA000800F550076E086A99EC0CF0000E026EF6
:100DCA001B0E016E000E046E010E036E5CEC04F045
:100DDA00000E476E0EEF07F047500A6E0B6A0B5073
:100DEA00000AD8B4FBEF06F0EDEF06F00A50000A4D
:100DFA00D8B489EF06F0010AD8B4A3EF06F0030AC3
:100E0A00D8B4BDEF06F0010AD8B4D7EF06F0EDEF7B
:100E1A0006F0120002BE1DEF07F0025007E1080EAD
:100E2A00015CD8B01BEF07F01DEF07F031EF07F0B8
:100E3A0001C003F0010E046E032A26EF07F0D890D2
:100E4A000436032E24EF07F004508014056E055073
:100E5A00016E026AC3EF07F002BE3FEF07F00250CD
:100E6A0007E1100E015CD8B03DEF07F03FEF07F045
:100E7A0055EF07F001C003F0F80E0326010E046EC9
:100E8A00032A4AEF07F0D8900436032E48EF07F0FA
:100E9A0004508114056E0550016E026AC3EF07F013
:100EAA0002BE63EF07F0025007E1180E015CD8B0EA
:100EBA0061EF07F063EF07F079EF07F001C003F085
:100ECA00F00E0326010E046E032A6EEF07F0D89087
:100EDA000436032E6CEF07F004508214056E055099
:100EEA00016E026AC3EF07F002BE87EF07F00250F5
:100EFA0007E1200E015CD8B085EF07F087EF07F015
:100F0A009DEF07F001C003F0E80E0326010E046E00
:100F1A00032A92EF07F0D8900436032E90EF07F0D9
:100F2A0004508314056E0550016E026AC3EF07F080
:100F3A0002BEABEF07F0025007E1280E015CD8B001
:100F4A00A9EF07F0ABEF07F0C1EF07F001C003F01C
:100F5A00E00E0326010E046E032AB6EF07F0D890BE
:100F6A000436032EB4EF07F004508414056E0550BE
:100F7A00016E026AC3EF07F0016802681200000EF0
:100F8A003B6E000E3A6E000E0E6E000E0D6E0EBE19
:100F9A00D8EF07F00E5009E1050E0D5CD8A0D8EF86
:100FAA0007F0DAEF07F0DCEF07F03DEF08F00DC0CD
:100FBA000AF0030E0A26010E0B6E000E0C6E0A2AA8
:100FCA00EAEF07F0D8900B360C360A2EE7EF07F057
:100FDA000BC007F00CC008F099EC0CF0000E026E82
:100FEA000A0E016E0FEC07F001500210D8B400EFA0
:100FFA0008F002EF08F015EF08F00DC00AF0010E34
:10100A000B6E000E0C6E0A2A0EEF08F0D8900B3603
:10101A000C360A2E0BEF08F00B503A120C503B120A
:10102A00000E026E090E016E0FEC07F0015002105D
:10103A00D8B422EF08F024EF08F039EF08F00DC019
:10104A000AF0050E0A26010E0B6E000E0C6E0A2A15
:10105A0032EF08F0D8900B360C360A2E2FEF08F034
:10106A000B503A120C503B120D4A0E2ACCEF07F0E5
:10107A003A50381807E13B503918D8A447EF08F01E
:10108A0049EF08F04CEF08F0480652EF08F0010E5D
:10109A00486E3AC038F03BC039F04850D8A458EFEF
:1010AA0008F05AEF08F05EEF08F038C03CF039C09B
:1010BA003DF01200BBEF08F0080E3F6E010E98ECEF
:1010CA000DF04E0E0F6E060E106E6EEC0CF0010E49
:1010DA00416EE0EF08F0030E3F6E010E98EC0DF042
:1010EA003A0E0F6E060E106E6EEC0CF0020E416E8A
:1010FA00E0EF08F0020E3F6E010E98EC0DF0300E94
:10110A000F6E060E106E6EEC0CF0030E416EE0EFE1
:10111A0008F0010E3F6E010E98EC0DF0260E0F6ED0
:10112A00060E106E6EEC0CF0040E416EE0EF08F045
:10113A00050E3F6E010E98EC0DF0440E0F6E060E72
:10114A00106E6EEC0CF0050E416EE0EF08F02D0EFD
:10115A003F6E010E98EC0DF01B0E0F6E060E106E10
:10116A006EEC0CF0000E416EE0EF08F04150156E87
:10117A00166A1650000AD8B4C5EF08F0E0EF08F076
:10118A001550000AD8B461EF08F0010AD8B470EF1C
:10119A0008F0030AD8B47FEF08F0010AD8B48EEF3A
:1011AA0008F0070AD8B49DEF08F0010AD8B4ACEFEA
:1011BA0008F0E0EF08F0120059EC06F0270E046E72
:1011CA00100E036E34C001F035C002F0E4EC0AF0F0
:1011DA0001C008F002C009F0000E0B6E0A0E0A6E7A
:1011EA00B8EC0BF008C00DF009C00EF0030E046E47
:1011FA00E80E036E34C001F035C002F0E4EC0AF0E8
:10120A0001C008F002C009F0000E0B6E0A0E0A6E49
:10121A00B8EC0BF008C00FF009C010F0000E046E15
:10122A00640E036E34C001F035C002F0E4EC0AF03B
:10123A0001C008F002C009F0000E0B6E0A0E0A6E19
:10124A00B8EC0BF008C011F009C012F0000E046EE1
:10125A000A0E036E34C001F035C002F0E4EC0AF065
:10126A0001C008F002C009F0000E0B6E0A0E0A6EE9
:10127A00B8EC0BF008C013F009C014F0000E016EB0
:10128A000D5017EC0CF0010E016E0F5017EC0CF01C
:10129A00020E016E115017EC0CF0030E016E135082
:1012AA0017EC0CF01200000E066E04BE61EF09F096
:1012BA005FEF09F067EF09F0036C041ED8B0042A47
:1012CA00010E066E02BE6EEF09F06CEF09F074EFC4
:1012DA0009F0016C021ED8B0022A010E061A000E8D
:1012EA00086E000E076E03500410D8B47FEF09F0A1
:1012FA0081EF09F0A9EF09F0010E056E89EF09F0F7
:10130A00D89003360436052A04AE8EEF09F090EF22
:10131A0009F085EF09F0D890073608360350015CCA
:10132A0004500258D8A09CEF09F09EEF09F0A3EFF1
:10133A0009F00350015E0450025A0780D890043223
:10134A000332052E90EF09F00650D8B4AFEF09F03A
:10135A00B1EF09F0B5EF09F0076C081ED8B0082AFA
:10136A0007C001F008C002F01200000E026E1C0E47
:10137A00016E000E046E000E036E35EC03F0000ED3
:10138A00026E1D0E016E000E046E000E036E35EC29
:10139A0003F0E1EC0CF0000E026E0F0E016E34EC5D
:1013AA000DF0000E0B6E000E0A6E030E76EC0DF0B9
:1013BA00000E026E050E016E34EC0DF0000E0B6E7F
:1013CA00000E0A6E030E76EC0DF0000E026EA00EF1
:1013DA00016EBCEC0DF0000E0B6E000E0A6E030ED1
:1013EA0076EC0DF0000E026EA00E016EBCEC0DF054
:1013FA00000E0B6E000E0A6E020E76EC0DF0000E59
:10140A00026E0A0E016E34EC0DF0280E98EC0DF007
:10141A000C0E98EC0DF0010E98EC0DF01200BAECDF
:10142A0009F01BEC0DF043EC0CF0B8EC0DF05FEC9E
:10143A0008F0C4EC07F059EC06F0000E026E0A0E32
:10144A00016E86EC0BF0344A352A3EEF0AF083EC43
:10145A0005F0010E1B6E57EF0AF059EC06F0020E6A
:10146A001B6E57EF0AF0E1EC08F0000E1B6E57EF07
:10147A000AF01B50196E1A6A1A50000AD8B448EFBB
:10148A000AF03AEF0AF01950000AD8B42CEF0AF021
:10149A00010AD8B432EF0AF0030AD8B438EF0AF0D6
:1014AA003AEF0AF059EC06F0000E026E0A0E016ECF
:1014BA0086EC0BF01EEF0AF000EF00F03F504018E8
:1014CA00D8A46AEF0AF06CEF0AF086EF0AF0000E71
:1014DA00086E020E076E1EEC0BF0000E086E010E6F
:1014EA00076E52EC0BF0000E086E040E076E52ECFB
:1014FA000BF00B0E026EB80E016E86EC0BF0A7EF26
:10150A000AF03F504018D8B48DEF0AF08FEF0AF076
:10151A00A7EF0AF0000E086E010E076E1EEC0BF024
:10152A00000E086E020E076E52EC0BF0000E086EEB
:10153A00040E076E52EC0BF00B0E026EB80E016E23
:10154A0086EC0BF01200000E056E000E046E04C04D
:10155A0001F0010E026E000E036E012AB8EF0AF0C6
:10156A00D89002360336012EB5EF0AF03C50021627
:10157A003D50031602500310D8B4C6EF0AF0C8EF64
:10158A000AF0D2EF0AF0110E0424F66E060E0520B8
:10159A00F76E0800F550E3EF0AF0044A052A05BE83
:1015AA00E0EF0AF0055009E10A0E045CD8A0E0EF6A
:1015BA000AF0E2EF0AF0ACEF0AF0000E1200000E99
:1015CA00066E000E056E03500410D8B4EFEF0AF051
:1015DA00F1EF0AF019EF0BF0010E076EF9EF0AF0BE
:1015EA00D89003360436072A04AEFEEF0AF000EF5D
:1015FA000BF0F5EF0AF0D890053606360350015C79
:10160A0004500258D8A00CEF0BF00EEF0BF013EFBA
:10161A000BF00350015E0450025A0580D890043240
:10162A000332072E00EF0BF005C001F006C002F0EE
:10163A00120007A023EF0BF025EF0BF02FEF0BF0B2
:10164A00000E026E180E016E000E046E010E036E7D
:10165A005CEC04F007A234EF0BF036EF0BF040EF2E
:10166A000BF0000E026E190E016E000E046E010ED2
:10167A00036E5CEC04F007A445EF0BF047EF0BF0A8
:10168A0051EF0BF0000E026E1A0E016E000E046E80
:10169A00010E036E5CEC04F0120007A057EF0BF08A
:1016AA0059EF0BF063EF0BF0000E026E180E016E8D
:1016BA00000E046E000E036E5CEC04F007A268EFE5
:1016CA000BF06AEF0BF074EF0BF0000E026E190EBE
:1016DA00016E000E046E000E036E5CEC04F007A4AB
:1016EA0079EF0BF07BEF0BF085EF0BF0000E026E3B
:1016FA001A0E016E000E046E000E036E5CEC04F00E
:10170A001200000E046E000E036EACEF0BF0000E1A
:10171A00056E280E056494EF0BF096EF0BF098EF28
:10172A000BF0AAEF0BF0000E066E020E0664A0EF95
:10173A000BF0A2EF0BF0A4EF0BF0A7EF0BF0062AC9
:10174A009AEF0BF0052A8EEF0BF0034A042A015098
:10175A00035C02500458D8A0B5EF0BF0B7EF0BF0BA
:10176A008CEF0BF012000A500B10D8B4BFEF0BF03D
:10177A00C1EF0BF0E5EF0BF0010E0C6EC9EF0BF0A9
:10178A00D8900A360B360C2A0BAECEEF0BF0D0EF00
:10179A000BF0C5EF0BF00A50085C0B500958D8A0A3
:1017AA00D9EF0BF0DBEF0BF0DFEF0BF00A50085E1E
:1017BA000B50095AD8900B320A320C2ED0EF0BF08C
:1017CA0008C008F009C009F012000D6E0DC00CF037
:1017DA000C3A0F0E0C160C50076E086A99EC0CF0B6
:1017EA00000E026E1D0E016E0AC003F00BC004F05B
:1017FA005CEC04F0C0EC0CF00DC00CF00F0E0C16F3
:10180A000C50076E086A99EC0CF0000E026E1D0E61
:10181A00016E0AC003F00BC004F05CEC04F0C0ECEB
:10182A000CF01200026E0150D8A41EEF0CF020EF4B
:10183A000CF022EF0CF002C046F00104D8A428EF05
:10184A000CF02AEF0CF02CEF0CF002C045F0020E5F
:10185A000118D8A433EF0CF035EF0CF037EF0CF089
:10186A0002C044F0030E0118D8A43EEF0CF040EF7A
:10187A000CF042EF0CF002C043F01200000E026EB0
:10188A00180E016E000E046E000E036E35EC03F0A6
:10189A00000E026E190E016E000E046E000E036E2B
:1018AA0035EC03F0000E026E1A0E016E000E046E85
:1018BA00000E036E35EC03F0000E026E1B0E016E75
:1018CA00000E046E000E036E35EC03F0E1EC0CF032
:1018DA001200000E146E000E136E84EF0CF01350FB
:1018EA000F24116E14501020126E11C0F6FF12C090
:1018FA00F7FF0800F55089EC0DF0134A142A13502B
:10190A000F24116E14501020126E11C0F6FF12C06F
:10191A00F7FF0800F5500009D8A496EF0CF098EFED
:10192A000CF074EF0CF01200000E026E080E016E3D
:10193A00000E046E000E036E5CEC04F0000E096EDD
:10194A00000E026E1E0E016E800E0714036E046AEC
:10195A005CEC04F061EC0DF0D89007360836092AE1
:10196A00070E0964BBEF0CF0BDEF0CF0A5EF0CF00D
:10197A004CEC0DF01200000E026E1C0E016E000EF1
:10198A00046E010E036E5CEC04F0000E026E050E8E
:10199A00016EBCEC0DF0000E026E1C0E016E000E04
:1019AA00046E000E036E5CEC04F0000E026E050E6F
:1019BA00016EBCEC0DF01200000E026E1F0E016EDD
:1019CA00000E046E000E036E35EC03F0000E026E7C
:1019DA00080E016E000E046E000E036E35EC03F065
:1019EA00000E026E1E0E016E000E046E000E036ED5
:1019FA0035EC03F012004E0EF66E1B0EF76E000E5B
:101A0A00F86E00EE1CF010EE18F00900F5CFEEFFAC
:101A1A00E550E150FAE100EE34F0160EEE6AE806FF
:101A2A00FDE1000EF86E000114EF0AF0E1EC0CF093
:101A3A00000E026E0A0E016E000E046E010E036E97
:101A4A0035EC03F0000E026E090E016E000E046EF4
:101A5A00010E036E35EC03F00C0EC16E1200000E7F
:101A6A00056E000E046E3CEF0DF0044A052A015083
:101A7A00045C0550800A036E0250800A0358D8A0FD
:101A8A0049EF0DF04BEF0DF03AEF0DF01200000E9A
:101A9A00026E1F0E016E000E046E010E036E5CECE8
:101AAA0004F0000E026E1F0E016E000E046E000E90
:101ABA00036E5CEC04F01200000E026E080E016E5A
:101ACA00000E046E010E036E5CEC04F0000E026E52
:101ADA00080E016E000E046E000E036E5CEC04F03C
:101AEA0012000C6E0CC007F0086A99EC0CF0000E9C
:101AFA00026E1D0E016E0AC003F00BC004F05CEC0E
:101B0A0004F0C0EC0CF012000E6E000E0B6E010E0B
:101B1A000A6E0E50EAEC0BF0000E026E500E016EC9
:101B2A00BCEC0DF012000E6E000E0B6E000E0A6E6B
:101B3A000E50EAEC0BF0000E026E020E016E34EC4F
:101B4A000DF0120002000100030008000100050068
:101B5A000400020006000800060009003CC001F06B
:101B6A003DC002F01200080ED56ED58E120012008A
:020000040020DA
:08000000FFFFFFFFFFFFFFFF00
:020000040030CA
:0E000000FF027100FF8380FF0FC00FE00F4072
:00000001FF
